:100000000C9428000C9445000C9445000C94450079
:100010000C9445000C9445000C9445000C94CC11B4
:100020000C9445000C9445000C94D4050C94A10547
:100030000C9445000C9445000C9445000C9445002C
:100040000C9445000C9445000C9445000C9445001C
:1000500011241FBECFE5D8E0DEBFCDBF11E0A0E682
:10006000B0E0E0E5F8E702C005900D92AC32B107D0
:10007000D9F717E0ACE2B1E001C01D92A23CB10794
:10008000E1F70E94740E0C94263C0C940000EF9251
:10009000FF920F931F937B018C0120E030E040E042
:1000A0005FE40E94470388238CF0C801B70120E079
:1000B00030E040E05FE40E94BF010E94A7039B0183
:1000C000AC01205030404040504806C0C801B70144
:1000D0000E94A7039B01AC01B901CA011F910F91B6
:1000E000FF90EF900895A0E0B0E0E9E7F0E00C9415
:1000F000DF3BDC012B01FA019C91923008F439C1FD
:10010000EB018881823008F433C1943069F4843083
:1001100009F02FC111969C9111978981981709F4C4
:1001200028C1A2E8B0E025C1843009F421C18230A1
:10013000A9F4923009F01DC19A01AD0188E0EA01ED
:100140000990AE01E90109929E018150C1F7E201D7
:10015000898111969C918923818308C1923009F489
:1001600007C112962D903C901397EB018A819B81D9
:100170001496AD90BD90CD90DC901797EC80FD80EB
:100180000E811F819101281B390BB90137FF04C073
:1001900066277727621B730B603271050CF061C014
:1001A000121613066CF537014801062E04C096940A
:1001B0008794779467940A94D2F721E030E040E086
:1001C00050E004C0220F331F441F551F6A95D2F719
:1001D00021503040404050402E213F2140235123A8
:1001E000211531054105510521F021E030E040E0C5
:1001F00050E079018A01E628F728082919293CC02E
:10020000232BD1F1260E371E35014601062E04C0E0
:1002100096948794779467940A94D2F721E030E01B
:1002200040E050E004C0220F331F441F551F6A9561
:10023000D2F721503040404050402A213B214C21F0
:100240005D21211531054105510521F021E030E006
:1002500040E050E059016A01A628B728C828D928EB
:100260000BC0821593052CF01C01AA24BB24650148
:1002700003C0EE24FF24870111969C91D2011196B0
:100280008C91981709F445C0992339F0A80197017A
:100290002A193B094C095D0906C0A60195012E19D2
:1002A0003F09400B510B57FD08C011823382228257
:1002B00024833583468357831DC081E08183338245
:1002C000228288279927DC01821B930BA40BB50B94
:1002D00084839583A683B7830DC0220F331F441FE9
:1002E000551F2483358346835783828193810197E9
:1002F000938382832481358146815781DA01C90144
:100300000197A109B1098F5F9F4FAF4FBF4328F3FA
:100310000BC0918333822282EA0CFB1C0C1D1D1D35
:10032000E482F5820683178383E08083248135810C
:100330004681578157FF1AC0C901AA2797FDA0958A
:10034000BA2F81709070A070B07056954795379510
:100350002795822B932BA42BB52B84839583A6837F
:10036000B78382819381019693838283DF0101C0E9
:10037000D201CD01CDB7DEB7E2E10C94FB3BA0E2A8
:10038000B0E0E5ECF1E00C94EB3B69837A838B837E
:100390009C832D833E834F835887E9E0EE2EF12C1A
:1003A000EC0EFD1ECE010196B7010E94D0048E0115
:1003B0000F5E1F4FCE010596B8010E94D0048A89B6
:1003C00091E089278A8BC701B801AE01475E5F4F74
:1003D0000E9473000E94FB03A096E6E00C94073C89
:1003E000A0E2B0E0E6EFF1E00C94EB3B69837A83A6
:1003F0008B839C832D833E834F835887F9E0EF2EB8
:10040000F12CEC0EFD1ECE010196B7010E94D00426
:100410008E010F5E1F4FCE010596B8010E94D004D9
:10042000C701B801AE01475E5F4F0E9473000E9492
:10043000FB03A096E6E00C94073CA0E2B0E0E3E208
:10044000F2E00C94DF3B69837A838B839C832D835A
:100450003E834F835887CE010196BE01675F7F4F71
:100460000E94D004CE010596BE016F5E7F4F0E94B0
:10047000D0049985923088F089898230C8F0943010
:1004800019F4823051F404C0843029F4923081F49C
:1004900082E890E0C6C0923049F420E09A858A89CB
:1004A000981321E02A87CE010996BBC0823049F417
:1004B00020E09A858A89981321E02A8BCE01419603
:1004C000B0C02D843E844F8458886D887E888F8884
:1004D000988CEE24FF248701AA24BB24650140E008
:1004E00050E060E070E0E0E0F0E0C1018170907009
:1004F000892BE9F0E60CF71C081D191D9A01AB01C8
:100500002A0D3B1D4C1D5D1D80E090E0A0E0B0E099
:10051000E614F7040805190520F481E090E0A0E056
:10052000B0E0BA01A901480F591F6A1F7B1FAA0C2E
:10053000BB1CCC1CDD1C97FE08C081E090E0A0E055
:10054000B0E0A82AB92ACA2ADB2A3196E032F1059E
:1005500049F0660C771C881C991C56944794379474
:100560002794C3CFFA85EA892B893C898B859C85A2
:10057000280F391F2E5F3F4F17C0CA01817090703E
:10058000892B61F016950795F794E79480E090E049
:10059000A0E0B0E8E82AF92A0A2B1B2B769567958C
:1005A000579547952F5F3F4F77FDE7CF0CC0440F1E
:1005B000551F661F771F17FD4160EE0CFF1C001FC3
:1005C000111F21503040403090E0590790E06907FA
:1005D00090E4790760F32B8F3C8FDB01CA018F77A2
:1005E0009070A070B07080349105A105B10561F4E0
:1005F00047FD0AC0E114F1040105110529F0405C32
:100600005F4F6F4F7F4F40781A8EFE1711F081E0D9
:100610008A8F4D8F5E8F6F8F78A383E0898FCE0195
:1006200049960E94FB03A096E2E10C94FB3BA8E1F3
:10063000B0E0EDE1F3E00C94EB3B69837A838B83CC
:100640009C832D833E834F83588789E0E82EF12CCD
:10065000EC0EFD1ECE010196B7010E94D0048E0162
:100660000F5E1F4FCE010596B8010E94D004898508
:10067000823040F08989823028F0C701B8010E9499
:10068000480501C08FEF6896E6E00C94073CA8E1AE
:10069000B0E0EDE4F3E00C94EB3B69837A838B8369
:1006A0009C832D833E834F83588789E0E82EF12C6D
:1006B000EC0EFD1ECE010196B7010E94D0048E0102
:1006C0000F5E1F4FCE010596B8010E94D0048985A8
:1006D000823040F08989823028F0C701B8010E9439
:1006E000480501C08FEF6896E6E00C94073CA8E14E
:1006F000B0E0EDE7F3E00C94EB3B69837A838B8306
:100700009C832D833E834F83588789E0E82EF12C0C
:10071000EC0EFD1ECE010196B7010E94D0048E01A1
:100720000F5E1F4FCE010596B8010E94D004898547
:10073000823040F08989823028F0C701B8010E94D8
:10074000480501C081E06896E6E00C94073CACE007
:10075000B0E0EDEAF3E00C94EF3B69837A838B839E
:100760009C83CE010196BE016B5F7F4F0E94D00437
:100770008D81823061F1823050F1843021F48E819C
:10078000882351F12EC02F81388537FD20C06E811E
:100790002F3131051CF06623F9F023C08EE190E083
:1007A000821B930B29853A854B855C8504C0569541
:1007B0004795379527958A95D2F76623B1F05095DE
:1007C0004095309521953F4F4F4F5F4F0EC020E031
:1007D00030E040E050E009C02FEF3FEF4FEF5FE720
:1007E00004C020E030E040E050E8B901CA012C9696
:1007F000E2E00C940B3CDF92EF92FF920F931F9379
:10080000FC01E480F58006811781D18080818230EF
:1008100048F480E090E0A0E1B0E0E82AF92A0A2B51
:100820001B2BA5C0843009F49FC0823021F4EE2434
:10083000FF24870105C0E114F1040105110519F435
:10084000E0E0F0E096C0628173819FEF6238790743
:100850000CF05BC022E83FEF261B370B2A31310535
:100860002CF020E030E040E050E02AC0B801A701C1
:10087000022E04C076956795579547950A94D2F74E
:1008800081E090E0A0E0B0E004C0880F991FAA1FAB
:10089000BB1F2A95D2F70197A109B1098E219F218B
:1008A000A023B1230097A105B10521F081E090E0DC
:1008B000A0E0B0E09A01AB01282B392B4A2B5B2B2F
:1008C000DA01C9018F779070A070B0708034910503
:1008D000A105B10539F427FF09C0205C3F4F4F4FF8
:1008E0005F4F04C0215C3F4F4F4F5F4FE0E0F0E0AF
:1008F0002030A0E03A07A0E04A07A0E45A0710F031
:10090000E1E0F0E079018A0127C06038710564F503
:10091000FB01E158FF4FD801C7018F779070A0709D
:10092000B07080349105A105B10539F4E7FE0DC022
:1009300080E490E0A0E0B0E004C08FE390E0A0E0AD
:10094000B0E0E80EF91E0A1F1B1F17FF05C0169521
:100950000795F794E794319687E016950795F794F5
:10096000E7948A95D1F705C0EE24FF248701EFEFC5
:10097000F0E06E2F679566276795902F9F77D79445
:10098000DD24D7948E2F8695492F462B582F5D292D
:10099000B701CA011F910F91FF90EF90DF9008956A
:1009A000FC01DB01408151812281622F6F7770E071
:1009B000221F2227221F9381892F880F822B282F05
:1009C00030E0991F9927991F11969C931197211533
:1009D0003105A9F5411551056105710511F482E054
:1009E00037C082E89FEF13969C938E9312979A01DB
:1009F000AB0167E0220F331F441F551F6A95D1F7E3
:100A000083E08C930DC0220F331F441F551F129695
:100A10008D919C911397019713969C938E931297A7
:100A2000203080E0380780E0480780E4580758F31A
:100A300014962D933D934D935C93179708952F3FF4
:100A4000310579F4411551056105710519F484E00A
:100A50008C93089564FF03C081E08C9312C01C92B4
:100A600010C02F57304013963C932E93129783E07B
:100A70008C9387E0440F551F661F771F8A95D1F727
:100A8000706414964D935D936D937C9317970895BE
:100A90001F93DC01FB019C91923008F447C08081D8
:100AA000823008F443C0943051F411961C91843084
:100AB00099F58181682F70E0611B71093FC0843016
:100AC00021F0923031F48230B9F18181882389F1AB
:100AD0002DC011961C9111978230F1F08181181769
:100AE000D9F412962D913C911397828193818217AC
:100AF000930794F028173907BCF014968D919D91B7
:100B00000D90BC91A02D24813581468157812817F5
:100B100039074A075B0718F4112341F00AC082170E
:100B20009307A407B50740F4112319F061E070E0C2
:100B300005C06FEF7FEF02C060E070E0CB011F9156
:100B400008951F920F920FB60F9211242F933F9387
:100B50004F935F936F937F938F939F93AF93BF93C5
:100B6000EF93FF93DF93CF93CDB7DEB780912C0146
:100B700090912D01009729F0E0912C01F0912D0129
:100B80000995CF91DF91FF91EF91BF91AF919F9127
:100B90008F917F916F915F914F913F912F910F9026
:100BA0000FBE0F901F9018951F920F920FB60F92C5
:100BB00011242F933F934F935F936F937F938F9362
:100BC0009F93AF93BF93EF93FF93DF93CF93CDB7F3
:100BD000DEB780912C0190912D01009729F0E091D2
:100BE0002C01F0912D010995CF91DF91FF91EF91AB
:100BF000BF91AF919F918F917F916F915F914F9135
:100C00003F912F910F900FBE0F901F901895DF937B
:100C1000CF9300D0CDB7DEB79A838983A2E5B0E049
:100C2000E981FA8182818C93E981FA81808188232C
:100C3000D9F4A3E5B0E0E3E5F0E0808180688C932F
:100C4000A9E5B0E0E9E5F0E0808181608C93A3E55F
:100C5000B0E0E3E5F0E08081982F987FE981FA81A8
:100C60008181892B8C9325C0E981FA818081823032
:100C700001F5A3E5B0E0E3E5F0E0808180688C93C6
:100C8000A9E5B0E0E9E5F0E0808182608C93ACE515
:100C9000B0E0E981FA8183818C93A3E5B0E0E3E5DC
:100CA000F0E08081982F987FE981FA818181892BFA
:100CB0008C930F900F90CF91DF910895DF93CF9396
:100CC00000D0CDB7DEB79A83898389819A819093CA
:100CD0002D0180932C010F900F90CF91DF910895FB
:100CE000DF93CF93CDB7DEB7E3E5F0E01082E9E51F
:100CF000F0E01082CF91DF910895DF93CF93CDB7CD
:100D0000DEB7CF91DF910895DF93CF93CDB7DEB7F4
:100D1000CF91DF910895DF93CF93CDB7DEB781E018
:100D200064E041E00E94160A81E065E041E00E9433
:100D3000160A81E066E040E00E94160A81E067E062
:100D400041E00E94160AEDE2F0E084E58083AEE225
:100D5000B0E0EEE2F0E080818E7F8C93CF91DF9166
:100D60000895DF93CF93CDB7DEB781E064E040E034
:100D70000E94160A81E065E040E00E94160A81E0C8
:100D800066E041E00E94160A81E067E040E00E94D0
:100D9000160AEDE2F0E080E48083AEE2B0E0EEE23D
:100DA000F0E080818E7F8C93CF91DF910895DF9367
:100DB000CF930F92CDB7DEB78983EFE2F0E0898160
:100DC0008083EEE2F0E080818823DCF7EFE2F0E060
:100DD00080810F90CF91DF910895DF93CF9300D062
:100DE00000D0CDB7DEB79C838B831A8219820FC0E7
:100DF0008A81282F30E08B819C81FC01E20FF31F58
:100E000080810E94D70689838A818F5F8A838A8145
:100E1000282F30E08B819C81FC01E20FF31F808141
:100E2000882331F70F900F900F900F90CF91DF91A3
:100E300008950F931F93DF93CF9300D00F92CDB7F8
:100E4000DEB79B838A8319828981282F30E08A81CB
:100E50009B818C01020F131F8FEF0E94D706F801B0
:100E6000808310C089818F5F89838981282F30E03A
:100E70008A819B818C01020F131F8FEF0E94D7067E
:100E8000F80180838981282F30E08A819B81FC01D1
:100E9000E20FF31F8081833229F78981282F30E008
:100EA0008A819B81FC01E20FF31F10820F900F904B
:100EB0000F90CF91DF911F910F910895DF93CF9302
:100EC00000D00F92CDB7DEB79B838A831982CAC048
:100ED0008981282F30E0C901880F991F880F991F39
:100EE000280F391F8A819B81FC01E20FF31F81814A
:100EF000883008F0B4C08981282F30E0C901880FFC
:100F0000991F880F991F280F391F8A819B81FC0127
:100F1000E20FF31F8081843008F0A1C08981282F5F
:100F200030E0C901880F991F880F991F280F391FBA
:100F30008A819B81FC01E20FF31F50818981282F58
:100F400030E0C901880F991F880F991F280F391F9A
:100F50008A819B81FC01E20FF31F41818981282F47
:100F600030E0C901880F991F880F991F280F391F7A
:100F70008A819B81FC01E20FF31F9281852F642FF0
:100F8000492F0E94160A8981282F30E0C901880F55
:100F9000991F880F991F280F391F8A819B81FC0197
:100FA000E20FF31F50818981282F30E0C901880F9B
:100FB000991F880F991F280F391F8A819B81FC0177
:100FC000E20FF31F41818981282F30E0C901880F8A
:100FD000991F880F991F280F391F8A819B81FC0157
:100FE000E20FF31F9481852F642F492F0E94010B7C
:100FF0008981282F30E0C901880F991F880F991F18
:10100000280F391F8A819B81FC01E20FF31F838126
:10101000813029F58981282F30E0C901880F991F77
:10102000880F991F280F391F8A819B81FC01E20FCD
:10103000F31F40818981282F30E0C901880F991F53
:10104000880F991F280F391F8A819B81FC01E20FAD
:10105000F31F9181842F692F41E00E94010B898148
:101060008F5F89838981803208F432CF0F900F908F
:101070000F90CF91DF910895DF93CF93CDB7DEB777
:1010800028970FB6F894DEBF0FBECDBF9E838D8329
:1010900078876F831C821B821A82198240C08C81E0
:1010A000282F30E08D819E81820F931FFC013196A5
:1010B00080818B838B81282F30E0C901880F991F95
:1010C000880F991F820F931FFC01E557FF4F808106
:1010D0008A838B81282F30E0C901880F991F880FE0
:1010E000991F820F931FFC01E457FF4F8081898372
:1010F0008981883088F48A81843070F48C81282F2B
:1011000030E08F819885FC01E20FF31F90818A8186
:101110006981492F0E94010B8C818F5F8C83ED8147
:10112000FE8190818C81891708F4B9CF28960FB67B
:10113000F894DEBF0FBECDBFCF91DF9108950F931E
:101140001F93DF93CF93CDB7DEB7A4970FB6F89474
:10115000DEBF0FBECDBF9AA389A37CA36BA318A249
:101160001F8E1E8E1D8E50C188A1282F30E089A1B0
:101170009AA1820F931FFC01319680818F8F8F8DF2
:10118000282F30E0C901880F991F880F991F820FFF
:10119000931FFC01E557FF4F80818E8F8F8D282F85
:1011A00030E0C901880F991F880F991F820F931F84
:1011B000FC01E457FF4F80818D8F8D8D883008F0C2
:1011C00020C18E8D843008F01CC18E8D6D8D0E94E3
:1011D000710C813009F088C080E090E0A0EFB1E4AC
:1011E000898F9A8FAB8FBC8F698D7A8D8B8D9C8DFB
:1011F00020E030E04AEF54E40E941D02DC01CB0104
:101200008D8B9E8BAF8BB88F6D897E898F89988DE2
:1012100020E030E040E85FE30E94770388232CF46D
:1012200081E090E09C8B8B8B3FC06D897E898F899C
:10123000988D20E03FEF4FE757E40E941703181600
:101240004CF5698D7A8D8B8D9C8D20E030E040E2ED
:1012500051E40E941D02DC01CB01BC01CD010E94C2
:101260004700DC01CB019C8B8B8B0FC088EC90E09E
:101270009A8B898B89899A890197F1F79A8B898B47
:101280008B899C8901979C8B8B8B8B899C89009780
:1012900069F714C06D897E898F89988D0E944700F7
:1012A000DC01CB019C8B8B8B8B899C89988B8F87E6
:1012B0008F8598890197F1F7988B8F878E8D6D8D2B
:1012C0000E94710C813009F09CC088A1282F30E069
:1012D0008BA19CA18C01020F131F8E8D6D8D0E941E
:1012E000710CF80180838DC08E8D6D8D0E94710C04
:1012F000882309F086C080E090E0A0EFB1E48B87FE
:101300009C87AD87BE876B857C858D859E8520E01B
:1013100030E04AEF54E40E941D02DC01CB018F83D0
:101320009887A987BA876F81788589859A8520E013
:1013300030E040E85FE30E94770388232CF481E0EB
:1013400090E09E838D833FC06F81788589859A85E3
:1013500020E03FEF4FE757E40E94170318164CF5C3
:101360006B857C858D859E8520E030E040E251E4F0
:101370000E941D02DC01CB01BC01CD010E9447008F
:10138000DC01CB019E838D830FC088EC90E09C83B1
:101390008B838B819C810197F1F79C838B838D815B
:1013A0009E8101979E838D838D819E81009769F731
:1013B00014C06F81788589859A850E944700DC0179
:1013C000CB019E838D838D819E819A8389838981C0
:1013D0009A810197F1F79A8389838E8D6D8D0E9492
:1013E000710C882371F488A1282F30E08BA19CA177
:1013F0008C01020F131F8E8D6D8D0E94710CF801F0
:10140000808388A18F5F88A3E9A1FAA1908188A138
:10141000891708F4A9CEA4960FB6F894DEBF0FBEC4
:10142000CDBFCF91DF911F910F910895DF93CF939F
:1014300000D000D00F92CDB7DEB789836A834B838B
:101440008A81883008F0D5C08981843008F0D1C005
:101450008981282F30E03D832C838C819D818130D0
:10146000910509F443C02C813D81223031052CF4D3
:101470008C819D81009771F0BCC02C813D81223010
:10148000310509F45FC08C819D818330910509F499
:1014900085C0AFC08B818130A1F4AAE3B0E0EAE35C
:1014A000F0E08081482F8A81282F30E081E090E0B1
:1014B000022E02C0880F991F0A94E2F7842B8C93A6
:1014C00098C0AAE3B0E0EAE3F0E08081482F8A8187
:1014D000282F30E081E090E0022E02C0880F991F93
:1014E0000A94E2F7809584238C9383C08B818130AA
:1014F000A1F4A7E3B0E0E7E3F0E08081482F8A8120
:10150000282F30E081E090E0022E02C0880F991F62
:101510000A94E2F7842B8C936CC0A7E3B0E0E7E376
:10152000F0E08081482F8A81282F30E081E090E030
:10153000022E02C0880F991F0A94E2F78095842337
:101540008C9357C08B818130A1F4A4E3B0E0E4E335
:10155000F0E08081482F8A81282F30E081E090E000
:10156000022E02C0880F991F0A94E2F7842B8C93F5
:1015700040C0A4E3B0E0E4E3F0E08081482F8A813A
:10158000282F30E081E090E0022E02C0880F991FE2
:101590000A94E2F7809584238C932BC08B81813051
:1015A000A1F4A1E3B0E0E1E3F0E08081482F8A817B
:1015B000282F30E081E090E0022E02C0880F991FB2
:1015C0000A94E2F7842B8C9314C0A1E3B0E0E1E32A
:1015D000F0E08081482F8A81282F30E081E090E080
:1015E000022E02C0880F991F0A94E2F78095842387
:1015F0008C930F900F900F900F900F90CF91DF91E1
:101600000895DF93CF9300D000D00F92CDB7DEB70F
:1016100089836A834B838A81883008F0D5C08981A9
:10162000843008F0D1C08981282F30E03D832C839D
:101630008C819D818130910509F443C02C813D81CD
:10164000223031052CF48C819D81009771F0BCC053
:101650002C813D812230310509F45FC08C819D8150
:101660008330910509F485C0AFC08B818130A1F42E
:10167000ABE3B0E0EBE3F0E08081482F8A81282FD4
:1016800030E081E090E0022E02C0880F991F0A949A
:10169000E2F7842B8C9398C0ABE3B0E0EBE3F0E08F
:1016A0008081482F8A81282F30E081E090E0022E4F
:1016B00002C0880F991F0A94E2F7809584238C93C7
:1016C00083C08B818130A1F4A8E3B0E0E8E3F0E0CF
:1016D0008081482F8A81282F30E081E090E0022E1F
:1016E00002C0880F991F0A94E2F7842B8C936CC078
:1016F000A8E3B0E0E8E3F0E08081482F8A81282F5A
:1017000030E081E090E0022E02C0880F991F0A9419
:10171000E2F7809584238C9357C08B818130A1F4AC
:10172000A5E3B0E0E5E3F0E08081482F8A81282F2F
:1017300030E081E090E0022E02C0880F991F0A94E9
:10174000E2F7842B8C9340C0A5E3B0E0E5E3F0E042
:101750008081482F8A81282F30E081E090E0022E9E
:1017600002C0880F991F0A94E2F7809584238C9316
:101770002BC08B818130A1F4A2E3B0E0E2E3F0E082
:101780008081482F8A81282F30E081E090E0022E6E
:1017900002C0880F991F0A94E2F7842B8C9314C01F
:1017A000A2E3B0E0E2E3F0E08081482F8A81282FB5
:1017B00030E081E090E0022E02C0880F991F0A9469
:1017C000E2F7809584238C930F900F900F900F90E9
:1017D0000F90CF91DF910895DF93CF9300D000D089
:1017E000CDB7DEB789836A838A81883008F072C0FA
:1017F0008981843008F06EC08981282F30E03C83D5
:101800002B838B819C818130910549F12B813C8117
:10181000223031052CF48B819C81009761F05AC0F5
:101820002B813C812230310571F18B819C81833089
:101830009105E9F14FC0ABE3B0E0EBE3F0E080816C
:10184000482F8A81282F30E081E090E0022E02C0EC
:10185000880F991F0A94E2F784278C933BC0A8E372
:10186000B0E0E8E3F0E08081482F8A81282F30E063
:1018700081E090E0022E02C0880F991F0A94E2F7DF
:1018800084278C9327C0A5E3B0E0E5E3F0E08081F6
:10189000482F8A81282F30E081E090E0022E02C09C
:1018A000880F991F0A94E2F784278C9313C0A2E350
:1018B000B0E0E2E3F0E08081482F8A81282F30E019
:1018C00081E090E0022E02C0880F991F0A94E2F78F
:1018D00084278C930F900F900F900F90CF91DF91F2
:1018E0000895DF93CF9300D000D00F92CDB7DEB72D
:1018F0008A836B8319828B81883008F084C08A8147
:10190000843008F080C08A81282F30E03D832C830A
:101910004C815D814130510579F18C819D8182300E
:10192000910534F42C813D812115310569F06BC09E
:101930004C815D8142305105B9F18C819D818330AC
:10194000910509F449C05FC0E9E3F0E08081282FE8
:1019500030E08B81882F90E0A90102C05595479512
:101960008A95E2F7CA0181709070882319F081E0AE
:10197000898349C0198247C0E6E3F0E08081282FBF
:1019800030E08B81882F90E0A90102C055954795E2
:101990008A95E2F7CA0181709070882319F081E07E
:1019A000898331C019822FC0E3E3F0E08081282FC2
:1019B00030E08B81882F90E0A90102C055954795B2
:1019C0008A95E2F7CA0181709070882319F081E04E
:1019D000898319C0198217C0E0E3F0E08081282FC5
:1019E00030E08B81882F90E0A90102C05595479582
:1019F0008A95E2F7CA0181709070882319F081E01E
:101A0000898301C0198289810F900F900F900F90E8
:101A10000F90CF91DF910895DF93CF9300D000D046
:101A2000CDB7DEB789836A838981843090F5898157
:101A3000282F30E03C832B838B819C818130910562
:101A4000D1F02B813C81223031052CF48B819C819B
:101A5000009761F01EC02B813C812230310581F05E
:101A60008B819C818330910581F013C0EAE3F0E023
:101A70008A8180830EC0E7E3F0E08A81808309C019
:101A8000E4E3F0E08A81808304C0E1E3F0E08A814E
:101A900080830F900F900F900F90CF91DF9108955A
:101AA000DF93CF9300D000D0CDB7DEB789836A83B0
:101AB0008981843090F58981282F30E03C832B8305
:101AC0008B819C8181309105D1F02B813C8122302A
:101AD00031052CF48B819C81009761F01EC02B8115
:101AE0003C812230310581F08B819C8183309105CE
:101AF00081F013C0EBE3F0E08A8180830EC0E8E35D
:101B0000F0E08A81808309C0E5E3F0E08A81808388
:101B100004C0E2E3F0E08A8180830F900F900F9081
:101B20000F90CF91DF910895DF93CF9300D000D035
:101B3000CDB7DEB78A8319828A81843090F58A8195
:101B4000282F30E03C832B838B819C818130910551
:101B5000D1F02B813C81223031052CF48B819C818A
:101B6000009761F01EC02B813C812230310581F04D
:101B70008B819C818330910581F013C0E9E3F0E013
:101B8000808189830EC0E6E3F0E08081898309C00B
:101B9000E3E3F0E08081898304C0E0E3F0E080814A
:101BA000898389810F900F900F900F90CF91DF91D3
:101BB00008950F931F93DF93CF9300D000D000D0F0
:101BC000CDB7DEB782E06FEF0E940C0D80E690E0AB
:101BD000E4E4FEE064E670E041E020E030E08F0104
:101BE0000E9498369E838D8387E690E0E4E5FEE0D0
:101BF00068EC70E041E020E030E08F010E94983610
:101C00009C838B838EE690E0E4E6FEE064E670E081
:101C100041E020E030E08F010E9498369A8389836A
:101C20000E942C279C018D819E8161E0A90120E00A
:101C300030E00AE010E00E942A370E942C279C0125
:101C40008B819C8161E0A90120E030E00EE110E091
:101C50000E942A370E942C279C0189819A8161E089
:101C6000A90120E030E004E610E00E942A370E943B
:101C7000892526960FB6F894DEBF0FBECDBFCF9153
:101C8000DF911F910F910895DF93CF9300D0CDB7CF
:101C9000DEB79A83898382E061E00E94EC0B0F90AB
:101CA0000F90CF91DF910895DF93CF9300D0CDB700
:101CB000DEB79A83898382E064E00E94EC0B0F9088
:101CC0000F90CF91DF910895DF93CF9300D0CDB7E0
:101CD000DEB79A83898382E067E00E94EC0B0F9065
:101CE0000F90CF91DF910895DF93CF93CDB7DEB7FB
:101CF0000E94D90DFFCFDF93CF9300D000D0CDB796
:101D0000DEB79C838B831A8219820E94D025809132
:101D1000300190913101009731F482E391E090938A
:101D20003101809330018B819C81009799F18091E2
:101D30002E0190912F012B813C81820F931F25E072
:101D40008B3D920738F520912E0130912F018B8128
:101D50009C81280F391F80912E0190912F018217AD
:101D60009307C0F4209130013091310180912E0110
:101D700090912F01820F931F9A83898320912E01C6
:101D800030912F018B819C81820F931F90932F01A3
:101D900080932E010E94DC2589819A810F900F90FB
:101DA0000F900F90CF91DF910895DF93CF9300D0E4
:101DB000CDB7DEB79A8389830F900F90CF91DF91D3
:101DC0000895DF93CF93CDB7DEB710922F01109215
:101DD0002E01CF91DF910895DF93CF93CDB7DEB77A
:101DE00020912E0130912F018BED95E0821B930BFA
:101DF000CF91DF910895DF93CF93CDB7DEB72897CA
:101E00000FB6F894DEBF0FBECDBF9C838B837E835D
:101E10006D8358874F83EB81FC8181E180838B81C7
:101E20009C8101979C838B83EB81FC8182E2808380
:101E30008B819C8101979C838B83EB81FC8183E365
:101E400080838B819C8101979C838B838D819E8174
:101E50009A8389838981EB81FC8180838B819C813A
:101E600001979C838B8389819A81892F99279A83F3
:101E700089838981EB81FC8180838B819C8101979F
:101E80009C838B83EB81FC8110828B819C810197E9
:101E90009C838B83EB81FC8180E880838B819C8198
:101EA00001979C838B83EB81FC8110828B819C81C9
:101EB00001979C838B83EB81FC8182E080838B8103
:101EC0009C8101979C838B83EB81FC8183E08083E1
:101ED0008B819C8101979C838B83EB81FC8184E0C7
:101EE00080838B819C8101979C838B83EB81FC8118
:101EF00085E080838B819C8101979C838B83EB8120
:101F0000FC8186E080838B819C8101979C838B83FD
:101F1000EB81FC8187E080838B819C8101979C838E
:101F20008B83EB81FC8188E080838B819C8101978E
:101F30009C838B83EB81FC8189E080838B819C81F6
:101F400001979C838B83EB81FC8180E180838B8173
:101F50009C8101979C838B83EB81FC8181E1808351
:101F60008B819C8101979C838B83EB81FC8182E137
:101F700080838B819C8101979C838B83EB81FC8187
:101F800083E180838B819C8101979C838B83EB8190
:101F9000FC8184E180838B819C8101979C838B836E
:101FA000EB81FC8185E180838B819C8101979C83FF
:101FB0008B83EB81FC8186E180838B819C810197FF
:101FC0009C838B83EB81FC8187E180838B819C8167
:101FD00001979C838B83EB81FC8188E180838B81DB
:101FE0009C8101979C838B83EB81FC8189E18083B9
:101FF0008B819C8101979C838B83EB81FC8180E2A8
:1020000080838B819C8101979C838B83EB81FC81F6
:1020100081E280838B819C8101979C838B83EB8100
:10202000FC8182E280838B819C8101979C838B83DE
:10203000EB81FC8183E280838B819C8101979C836F
:102040008B838F8198859A8389838981EB81FC8139
:1020500080838B819C8101979C838B8389819A816A
:10206000892F99279A8389838981EB81FC818083D9
:102070008B819C8101979C838B83EB81FC8186E221
:1020800080838B819C8101979C838B83EB81FC8176
:1020900087E280838B819C8101979C838B83EB817A
:1020A000FC8188E280838B819C8101979C838B8358
:1020B000EB81FC8189E280838B819C8101979C83E9
:1020C0008B83EB81FC8180E380838B819C810197F2
:1020D0009C838B83EB81FC8181E380838B819C815A
:1020E00001979C838B838B819C8128960FB6F894F3
:1020F000DEBF0FBECDBFCF91DF910895DF93CF93A9
:10210000CDB7DEB70E947011A0914807B091490782
:10211000CD91CDBFDD91DEBFFF91EF91DF91CF91EA
:10212000BF91AF919F918F917F916F915F914F91EF
:102130003F912F911F910F91FF90EF90DF90CF90E3
:10214000BF90AF909F908F907F906F905F904F90D7
:102150003F902F901F900F900FBE0F90089581E039
:10216000CF91DF910895DF93CF93CDB7DEB7CF91B5
:10217000DF9108950F920FB6F8940F921F921124D9
:102180002F923F924F925F926F927F928F929F9287
:10219000AF92BF92CF92DF92EF92FF920F931F9375
:1021A0002F933F934F935F936F937F938F939F935F
:1021B000AF93BF93CF93DF93EF93FF93A091480723
:1021C000B09149070DB60D920EB60D920E944029AE
:1021D000A0914807B0914907CD91CDBFDD91DEBFF9
:1021E000FF91EF91DF91CF91BF91AF919F918F912F
:1021F0007F916F915F914F913F912F911F910F911F
:10220000FF90EF90DF90CF90BF90AF909F908F9016
:102210007F906F905F904F903F902F901F900F9006
:102220000FBE0F9008950F920FB6F8940F921F9261
:1022300011242F923F924F925F926F927F928F92D2
:102240009F92AF92BF92CF92DF92EF92FF920F9345
:102250001F932F933F934F935F936F937F938F932E
:102260009F93AF93BF93CF93DF93EF93FF93A0918F
:102270004807B09149070DB60D920EB60D920E9417
:10228000A927882311F00E944029A0914807B09106
:102290004907CD91CDBFDD91DEBFFF91EF91DF9179
:1022A000CF91BF91AF919F918F917F916F915F91EE
:1022B0004F913F912F911F910F91FF90EF90DF90E1
:1022C000CF90BF90AF909F908F907F906F905F90D6
:1022D0004F903F902F901F900F900FBE0F9008953A
:1022E000DF93CF9300D000D000D0CDB7DEB780E42D
:1022F0009FE1A0E0B0E08B839C83AD83BE838B81A4
:102300009C81AD81BE81689415F8B695A795979587
:1023100087951694D1F78B839C83AD83BE838B8185
:102320009C81AD81BE810197A109B1098B839C83FA
:10233000AD83BE838B8189838B819C81AD81BE817E
:10234000892F9A2FAB2FBB278B839C83AD83BE83B2
:102350008B818A83EBE4F0E08A818083EAE4F0E019
:10236000898180838BE08983EEE4F0E0898180833A
:10237000E9E5F0E080818983898180618983E9E5ED
:10238000F0E08981808326960FB6F894DEBF0FBEF9
:10239000CDBFCF91DF9108950E9413111895DF935F
:1023A000CF93CDB7DEB727970FB6F894DEBF0FBE39
:1023B000CDBF9D838C836E834F838AE190E00E9422
:1023C0007B0E9A83898389819A81009709F46FC073
:1023D0008091120790911307009741F489819A81A7
:1023E00090931307809312070E943D148E818230D0
:1023F00010F081E08E83E981FA81118E108EE981DF
:10240000FA818E81868BE981FA818F81878BE981C0
:10241000FA818C819D819183808389819A81029642
:102420000E941D1889819A810C960E941D18E981CD
:10243000FA8189819A8191878087E981FA818981EE
:102440009A81938B828B8E81282F30E082E090E0FE
:10245000821B930BE981FA8195878487E981FA8150
:10246000968980911407891728F4E981FA81868971
:1024700080931407E981FA818689282F30E0C90109
:10248000880F991F880F991F880F991F820F931F1C
:10249000AC01455E584F89819A819C012E5F3F4F68
:1024A000CA01B9010E942D1881E08B8302C08FEF11
:1024B0008B838B8127960FB6F894DEBF0FBECDBFFE
:1024C000CF91DF910895DF93CF9300D000D000D05B
:1024D000CDB7DEB79C838B837E836D8320911507F8
:1024E000309116078B819C81820F931F9A83898379
:1024F000809112079091130702960E94DD18E091D7
:102500001207F091130789819A8193838283209126
:1025100015073091160789819A818217930770F405
:1025200080911007909111072091120730911307A5
:102530002E5F3F4FB9010E9471180DC080910E07A8
:1025400090910F0720911207309113072E5F3F4F94
:10255000B9010E9471188D819E81009761F0809170
:102560001207909113079C01245F3F4F8D819E813C
:10257000B9010E94711826960FB6F894DEBF0FBEFF
:10258000CDBFCF91DF910895DF93CF9300D0CDB72A
:10259000DEB73AC0F894E0914407F0914507868190
:1025A00097819A83898389819A810C960E94DD188C
:1025B000789489819A8102960E94DD18E981FA81D6
:1025C000968980911407891728F4E981FA81868910
:1025D00080931407E981FA818689282F30E0C901A8
:1025E000880F991F880F991F880F991F820F931FBB
:1025F000AC01455E584F89819A819C012E5F3F4F07
:10260000CA01B9010E942D1880913F07882309F063
:10261000C1CF0F900F90CF91DF910895DF93CF93AB
:1026200000D000D0CDB7DEB70E942C27209117072D
:1026300030911807821B930B90931A078093190708
:1026400085C0809115079091160701969093160703
:10265000809315078091190790911A07019790931D
:102660001A07809319078091150790911607009714
:1026700009F064C080910E0790910F079A838983B7
:10268000809110079091110790930F0780930E0788
:1026900089819A8190931107809310074FC0E09130
:1026A0000E07F0910F070580F681E02D8681978156
:1026B0009C838B83EB81FC81228133818091150780
:1026C000909116078217930708F440C0F8948B8105
:1026D0009C8102960E94DD18EB81FC81848995899A
:1026E000009729F08B819C810C960E94DD187894CC
:1026F000EB81FC81968980911407891728F4EB817E
:10270000FC81868980931407EB81FC818689282FC0
:1027100030E0C901880F991F880F991F880F991FF2
:10272000820F931FAC01455E584F8B819C819C01A9
:102730002E5F3F4FCA01B9010E942D18E0910E078C
:10274000F0910F078081882309F0A9CF80911907A4
:1027500090911A07009709F074CF80911507909116
:10276000160790931807809317070F900F900F90FC
:102770000F90CF91DF910895DF93CF9300D0CDB725
:10278000DEB780910E0790910F07009709F470C093
:102790000E94C4120E940E130AC08091140788235D
:1027A00009F466C0809114078150809314078091CA
:1027B0001407282F30E0C901880F991F880F991F2F
:1027C000880F991F820F931FFC01E55EF84F8081EF
:1027D000882319F380911407282F30E0C901880F4E
:1027E000991F880F991F880F991F820F931F855E6D
:1027F000984F9A838983E981FA810180F281E02DE3
:1028000082819381E981FA8192838183E981FA81CE
:102810002181328189819A8103962817390759F4D9
:10282000E981FA810180F281E02D82819381E98141
:10283000FA8192838183E981FA810180F281E02D1E
:10284000868197819093130780931207E091120776
:10285000F0911307408151818091120790911307E5
:10286000E0911207F09113072789622FFA01099569
:102870000F900F90CF91DF910895DF93CF930F9238
:10288000CDB7DEB7198213C08981282F30E0C90186
:10289000880F991F880F991F880F991F820F931F08
:1028A000855E984F0E94F31789818F5F89838981A4
:1028B000823050F38DE297E00E94F31786E397E0B1
:1028C0000E94F3178FE397E00E94F3178DE297E0E1
:1028D00090930F0780930E0786E397E0909311077C
:1028E000809310070F90CF91DF910895DF93CF93DE
:1028F00000D000D00F92CDB7DEB79D838C83EC81E2
:10290000FD810580F681E02D868197819B838A83F6
:102910008A819B810C960E94DD188A819B819C0193
:10292000245F3F4F8FE397E0B9010E942D18EA81A1
:10293000FB819689E0911207F09113078689981719
:1029400018F081E0898301C0198289810F900F906E
:102950000F900F900F90CF91DF910895DF93CF9359
:1029600000D0CDB7DEB78BE090E00E947B0E9A835B
:10297000898389819A81009749F0E981FA811182DE
:10298000108289819A8102960E94F31789819A8127
:102990000F900F90CF91DF910895DF93CF93CDB734
:1029A000DEB760970FB6F894DEBF0FBECDBF9A8733
:1029B00089877C876B875E874D87388B2F878985D2
:1029C0009A859C838B8319820E94D025EB81FC81A0
:1029D0008081918198878F8389859A852B853C8515
:1029E000B9010E94A4162F8138858B859C85282BE0
:1029F000392B8D859E85282339238D859E85281723
:102A00003907C9F42F8138858B859C85822B932BC0
:102A10009E838D83EB81FC81208131818D859E8514
:102A20008095909582239323EB81FC819183808311
:102A3000188A1F861EC08F859889009791F08B8118
:102A40009C81BC016E5F7F4F8D859E859C013560AA
:102A50004F855889CB01B9010E94CF291E821D8262
:102A600008C0EB81FC81808191819E838D8381E010
:102A700089830E94DC258A838F859889009709F4D1
:102A80003AC08A81882311F40E94BA100E945D2EF8
:102A90009E838D838D819E8180709270009731F529
:102AA0000FB6F8940F92EB81FC81808191819E8317
:102AB0008D832D813E818D859E85282339238D85AB
:102AC0009E852817390771F4EB81FC8120813181C3
:102AD0008D859E858095909582239323EB81FC8143
:102AE000918380830F900FBE81E089838D819E81C9
:102AF00090709E838D838D819E8160960FB6F89431
:102B0000DEBF0FBECDBFCF91DF9108950F931F930E
:102B1000DF93CF93CDB7DEB763970FB6F894DEBFE0
:102B20000FBECDBF9D878C877F876E87488B298B93
:102B30001B8B0A8B8C859D859B878A871F821E82B3
:102B40001B820E94D025EA85FB85808191819A8332
:102B5000898389819A812E853F85B90149890E949F
:102B6000C1178D838D818823C1F089819A819987CE
:102B700088871B8A1A8A88898823E9F1EA85FB8578
:102B8000208131818E859F85809590958223932326
:102B9000EA85FB85918380832EC08A899B89009773
:102BA00039F489819A819987888781E08B8323C052
:102BB0008889882329F08E819F8191609F838E83ED
:102BC0008989882329F08E819F8194609F838E83D9
:102BD0008A859B85BC016E5F7F4F2E853F858E81E8
:102BE0009F81282B392B4A895B89CB01B9010E942F
:102BF000CF29198618860E94DC258C838A899B89B7
:102C0000009709F43CC08C81882311F40E94BA100B
:102C10000E945D2E9987888788859985807092703B
:102C2000009741F50FB6F8940F92EA85FB858081F5
:102C3000918199878887888599852E853F85B901F7
:102C400049890E94C117882389F08889882371F0F7
:102C5000EA85FB85208131818E859F8580959095C1
:102C600082239323EA85FB859183808381E08B8394
:102C70000F900FBE88859985907099878887888581
:102C8000998563960FB6F894DEBF0FBECDBFCF9186
:102C9000DF911F910F910895DF93CF93CDB7DEB7EA
:102CA00028970FB6F894DEBF0FBECDBF9E838D83ED
:102CB00078876F838D819E819C838B830FB6F89478
:102CC0000F92EB81FC81808191819A838983EB81D2
:102CD000FC81208131818F81988580959095822318
:102CE0009323EB81FC81918380830F900FBE8981B8
:102CF0009A8128960FB6F894DEBF0FBECDBFCF9154
:102D0000DF910895DF93CF93CDB7DEB727970FB646
:102D1000F894DEBF0FBECDBF9F838E838E819F81CF
:102D20009C838B831D82EB81FC81808191819A83BE
:102D3000898389819A8127960FB6F894DEBF0FBEEA
:102D4000CDBFCF91DF910895DF93CF93CDB7DEB79D
:102D500065970FB6F894DEBF0FBECDBF9B8B8A8BF5
:102D60007D8B6C8B198618868A899B899B838A83C5
:102D700019828A819B8102969B878A878A859B8597
:102D800003969D878C870E94D025EA85FB858581E7
:102D90009681998B888BEA81FB81208131818C8996
:102DA0009D89822B932BEA81FB819183808359C07B
:102DB000E889F989828193819F878E87E889F989DB
:102DC000808191819F838E8319828E819F81807003
:102DD0009D838C838E819F8190709F838E838C8155
:102DE0009D8180709470009769F4EA81FB81208155
:102DF00031818E819F8182239323009791F081E01E
:102E000089830FC0EA81FB81208131818E819F817E
:102E1000282339238E819F812817390711F481E0F7
:102E2000898389818823C9F08C819D81807091700C
:102E3000009741F0888599852E813F81822B932BC5
:102E400099878887EA81FB81808191819C0132602A
:102E500088899989B9010E94DA2B8E859F85998B83
:102E6000888B288939898C859D852817390709F031
:102E70009FCFEA81FB81208131818885998580956A
:102E8000909582239323EA81FB81918380830E9422
:102E9000DC25EA81FB818081918165960FB6F894EB
:102EA000DEBF0FBECDBFCF91DF910895DF93CF93EB
:102EB00000D000D000D0CDB7DEB79E838D838D814A
:102EC0009E819C838B838B819C8102969A838983CC
:102ED0000E94D02508C0E981FA818581968160E051
:102EE00072E00E94DA2BE981FA818081882399F7C8
:102EF0008B819C810E94D50E0E94DC2526960FB600
:102F0000F894DEBF0FBECDBFCF91DF910895DF9360
:102F1000CF9300D000D000D0CDB7DEB79A8389839D
:102F20004B835C836D837E8389819A812B813C8175
:102F3000B9010E94A41626960FB6F894DEBF0FBE04
:102F4000CDBFCF91DF910895DF93CF9300D000D014
:102F500000D0CDB7DEB79A8389834B835C836D83C2
:102F60007E8389819A812B813C81B9010E944C1614
:102F700026960FB6F894DEBF0FBECDBFCF91DF917E
:102F80000895DF93CF9300D000D000D0CDB7DEB747
:102F90009B838A837D836C834E8319828E818823F1
:102FA00059F48A819B812C813D8182239323009750
:102FB00081F081E089830DC02A813B818C819D81D4
:102FC000282339238C819D812817390711F481E04A
:102FD0008983898126960FB6F894DEBF0FBECDBFD8
:102FE000CF91DF910895DF93CF9300D0CDB7DEB7B7
:102FF0009A83898389819A810396E981FA819283F0
:103000008183E981FA818FEF9FEF948383838981A4
:103010009A810396E981FA819683858389819A81D1
:103020000396E981FA8190878783E981FA8110828A
:103030000F900F90CF91DF910895DF93CF9300D041
:10304000CDB7DEB79A838983E981FA81118610862C
:103050000F900F90CF91DF910895DF93CF9300D021
:1030600000D000D0CDB7DEB79C838B837E836D8389
:10307000EB81FC81818192819A838983ED81FE813C
:1030800089819A8193838283E981FA818481958100
:10309000ED81FE8195838483E981FA810480F58145
:1030A000E02D8D819E8193838283E981FA818D81D8
:1030B0009E8195838483ED81FE818B819C819187A4
:1030C0008087EB81FC8180818F5FEB81FC81808335
:1030D00026960FB6F894DEBF0FBECDBFCF91DF911D
:1030E0000895DF93CF93CDB7DEB728970FB6F89446
:1030F000DEBF0FBECDBF9E838D8378876F83EF8148
:10310000F885808191819A83898389819A812FEFC3
:103110008F3F920739F4ED81FE81878190859C83F2
:103120008B8318C08D819E8103969C838B8306C000
:10313000EB81FC81828193819C838B83EB81FC8179
:103140000280F381E02D2081318189819A8182176B
:10315000930770F7EB81FC8182819381EF81F88581
:1031600093838283EF81F8850280F381E02D8F8144
:10317000988595838483EF81F8858B819C819583E5
:103180008483EB81FC818F81988593838283EF8197
:10319000F8858D819E8191878087ED81FE81808178
:1031A0008F5FED81FE81808328960FB6F894DEBF95
:1031B0000FBECDBFCF91DF910895DF93CF9300D0A5
:1031C00000D0CDB7DEB79C838B83EB81FC818085FB
:1031D00091859A838983EB81FC81A281B381EB8104
:1031E000FC818481958115969C938E931497EB8135
:1031F000FC81A481B581EB81FC818281938113964E
:103200009C938E931297E981FA81218132818B817F
:103210009C812817390741F4EB81FC8184819581D9
:10322000E981FA8192838183EB81FC81118610868A
:10323000E981FA8180818150E981FA818083E98185
:10324000FA8180810F900F900F900F90CF91DF91B6
:103250000895DF93CF9300D000D000D0CDB7DEB774
:103260009D838C836E8381E08B838C819D819A8387
:10327000898389819A81009709F48BC0E981FA8159
:10328000838D882309F485C0E981FA81838D282FF5
:1032900030E08FEF9FE7B9010E94CB3BCB019C014F
:1032A000E981FA81848D882F90E02817390708F486
:1032B00070C00FB6F8940F92E981FA814081518174
:1032C000E981FA81838D282F30E0E981FA81848DAC
:1032D000882F90E0BC01269FC001279F900D369F4C
:1032E000900D1124840F951FE981FA8195838483C1
:1032F000E981FA81128EE981FA8180819181E981E7
:10330000FA8193838283E981FA8140815181E98145
:10331000FA81838D882F90E09C0121503040E98113
:10332000FA81848D882F90E0BC01269FC001279FE1
:10333000900D369F900D1124840F951FE981FA811D
:1033400097838683E981FA818FEF858FE981FA81FE
:103350008FEF868F8E81882379F4E981FA818085C9
:103360008823A1F089819A8108960E94962A882351
:1033700069F00E94BA100AC089819A8108960E9459
:10338000F31789819A8141960E94F3170F900FBE1F
:1033900001C01B828B8126960FB6F894DEBF0FBE4C
:1033A000CDBFCF91DF9108950F931F93DF93CF93FC
:1033B000CDB7DEB729970FB6F894DEBF0FBECDBFED
:1033C0008F83688749871E821D828F81882309F435
:1033D00052C08F81282F30E08FEF9FE7B9010E9404
:1033E000CB3BCB019C018885882F90E028173907BB
:1033F00008F441C08F81282F30E08885882F90E025
:10340000AC01249FC001259F900D349F900D112485
:103410005FE7813E950778F58F81282F30E088851A
:10342000882F90E0AC01249FC001259F900D349F10
:10343000900D11249C838B838B819C814F960E94DD
:103440007B0E9E838D838D819E810097A1F08D815F
:103450009E819A83898389819A814F969A838983F1
:1034600029813A81ED81FE818F816885A9012985B5
:103470008F010E94481A8D819E8129960FB6F8947B
:10348000DEBF0FBECDBFCF91DF911F910F91089589
:103490000F931F93DF93CF93CDB7DEB727970FB668
:1034A000F894DEBF0FBECDBF89836A835C834B83F4
:1034B0002D831F830E838A81882339F48E819F8117
:1034C000EE81FF819183808306C08B819C81EE8198
:1034D000FF8191838083EE81FF818981838FEE81DB
:1034E000FF818A81848F8E819F8161E00E942919EA
:1034F00027960FB6F894DEBF0FBECDBFCF91DF91F8
:103500001F910F910895DF93CF93CDB7DEB72F971B
:103510000FB6F894DEBF0FBECDBF998788877B8733
:103520006A875D874C872E871C82888599859A8358
:1035300089830FB6F8940F92E981FA81928DE9811F
:10354000FA81838D981718F08E85823011F5898164
:103550009A812A853B85B9014E850E94D91E8B83AD
:10356000E981FA818189882351F089819A81419684
:103570000E94962A882341F00E94BA1005C08B81D0
:10358000882311F00E94BA100F900FBE81E08F8740
:103590005CC08C859D85009721F40F900FBE1F861F
:1035A00054C08C81882331F4CE0105960E94062DEB
:1035B00081E08C830F900FBE0E94D0250FB6F89447
:1035C0000F92E981FA81858D8F3F19F4E981FA81A3
:1035D000158EE981FA81868D8F3F19F4E981FA8190
:1035E000168E0F900FBECE0105969E01245F3F4FB1
:1035F000B9010E941F2D882309F589819A810E94B3
:1036000055208823A1F089819A8108962C853D85D3
:10361000B9010E94AD2989819A810E94C61F0E942A
:10362000DC25882309F085CF0E94BA1082CF8981DA
:103630009A810E94C61F0E94DC257BCF89819A81D6
:103640000E94C61F0E94DC251F868F852F960FB60D
:10365000F894DEBF0FBECDBFCF91DF910895DF9309
:10366000CF93CDB7DEB72D970FB6F894DEBF0FBE60
:10367000CDBF98878F837A8769875C874B872D8733
:103680008F8198859C838B831D82EB81FC81928D39
:10369000EB81FC81838D981718F08D85823081F540
:1036A000EB81FC81868D8A83EB81FC81828D89830D
:1036B0008B819C8129853A85B9014D850E94D91E4F
:1036C0008A818F3FA9F4EB81FC8181898823A9F04D
:1036D0008B819C8141960E94962A882371F08B856C
:1036E0009C85009751F0EB85FC8581E0808305C0C7
:1036F0008A818F5FEB81FC81868F81E08E8301C0A0
:103700001E828E812D960FB6F894DEBF0FBECDBF00
:10371000CF91DF910895DF93CF93CDB7DEB72A978E
:103720000FB6F894DEBF0FBECDBF98878F837A8720
:1037300069878F8198859C838B831D82EB81FC81B7
:10374000828D8A83EB81FC81938D8A81891748F56C
:10375000EB81FC81868D89838A818F5FEB81FC817F
:10376000828F89818F3FA9F4EB81FC818189882335
:10377000A9F08B819C8141960E94962A882371F042
:1037800089859A85009751F0E985FA8581E08083E3
:1037900005C089818F5FEB81FC81868F81E08E83FC
:1037A00001C01E828E812A960FB6F894DEBF0FBE2E
:1037B000CDBFCF91DF910895DF93CF93CDB7DEB723
:1037C0002E970FB6F894DEBF0FBECDBF99878887BE
:1037D0007B876A875D874C871C82888599859B8358
:1037E0008A830FB6F8940F92EA81FB81828D8983D8
:1037F00089818823F9F08A819B812A853B85B901DB
:103800000E947F1F89818150EA81FB81828FEA813A
:10381000FB818085882349F08A819B8108960E94DC
:10382000962A882311F00E94BA100F900FBE81E0F3
:103830008E8763C08C859D85009721F40F900FBE05
:103840001E865BC08C81882331F4CE0105960E94D0
:10385000062D81E08C830F900FBE0E94D0250FB6FD
:10386000F8940F92EA81FB81858D8F3F19F4EA81EC
:10387000FB81158EEA81FB81868D8F3F19F4EA81E9
:10388000FB81168E0F900FBECE0105969E01245F20
:103890003F4FB9010E941F2D882309F58A819B8122
:1038A0000E9419208823A1F08A819B8141962C8552
:1038B0003D85B9010E94AD298A819B810E94C61F66
:1038C0000E94DC25882309F08CCF0E94BA1089CF92
:1038D0008A819B810E94C61F0E94DC2582CF8A813B
:1038E0009B810E94C61F0E94DC258A819B810E94C9
:1038F0001920882309F475CF1E868E852E960FB663
:10390000F894DEBF0FBECDBFCF91DF910895DF9356
:10391000CF93CDB7DEB72C970FB6F894DEBF0FBEAE
:10392000CDBF998788877B876A871C828885998520
:103930009B838A830FB6F8940F92EA81FB81828D74
:10394000898389818823C1F089818150EA81FB8143
:10395000828FEA81FB818085882349F08A819B815F
:1039600008960E94962A882311F00E94BA100F90A0
:103970000FBE81E08C8763C08A859B85009721F408
:103980000F900FBE1C865BC08C81882331F4CE0162
:1039900005960E94062D81E08C830F900FBE0E9439
:1039A000D0250FB6F8940F92EA81FB81858D8F3F69
:1039B00019F4EA81FB81158EEA81FB81868D8F3FA8
:1039C00019F4EA81FB81168E0F900FBECE01059689
:1039D0009E01265F3F4FB9010E941F2D882309F5E4
:1039E0008A819B810E9419208823A1F08A819B8172
:1039F00041962A853B85B9010E94AD298A819B8128
:103A00000E94C61F0E94DC25882309F093CF0E94E4
:103A1000BA1090CF8A819B810E94C61F0E94DC252C
:103A200089CF8A819B810E94C61F0E94DC258A81E2
:103A30009B810E941920882309F47CCF1C868C85E9
:103A40002C960FB6F894DEBF0FBECDBFCF91DF919D
:103A50000895DF93CF93CDB7DEB760970FB6F89494
:103A6000DEBF0FBECDBF9B878A877D876C875F8750
:103A70004E871E828A859B859B838A830FB6F89426
:103A80000F92EA81FB81828D89838981882331F1BC
:103A9000EA81FB81868197819D838C838A819B81CA
:103AA0002C853D85B9010E947F1FEA81FB818C81B5
:103AB0009D8197838683EA81FB818189882349F0F0
:103AC0008A819B8141960E94962A882311F00E9448
:103AD000BA100F900FBE81E0888B63C08E859F85E2
:103AE000009721F40F900FBE188A5BC08E81882347
:103AF00031F4CE0107960E94062D81E08E830F904F
:103B00000FBE0E94D0250FB6F8940F92EA81FB8178
:103B1000858D8F3F19F4EA81FB81158EEA81FB8147
:103B2000868D8F3F19F4EA81FB81168E0F900FBEB0
:103B3000CE0107969E01225F3F4FB9010E941F2DC3
:103B4000882309F58A819B810E9419208823A1F08E
:103B50008A819B8141962E853F85B9010E94AD29BE
:103B60008A819B810E94C61F0E94DC25882309F060
:103B700085CF0E94BA1082CF8A819B810E94C61F86
:103B80000E94DC257BCF8A819B810E94C61F0E94F8
:103B9000DC258A819B810E941920882309F46ECF3D
:103BA000188A888960960FB6F894DEBF0FBECDBF25
:103BB000CF91DF910895DF93CF93CDB7DEB72C97E8
:103BC0000FB6F894DEBF0FBECDBF98878F837A877C
:103BD00069875C874B878F8198859C838B831D8247
:103BE000EB81FC81828D8A838A81882381F1EB813C
:103BF000FC81858D89838B819C8129853A85B901DA
:103C00000E947F1F8A818150EB81FC81828F898194
:103C10008F3FA9F4EB81FC8180858823A9F08B81FB
:103C20009C8108960E94962A882371F08B859C853A
:103C3000009751F0EB85FC8581E0808305C0898188
:103C40008F5FEB81FC81858F81E08E8301C01E82B6
:103C50008E812C960FB6F894DEBF0FBECDBFCF91EC
:103C6000DF910895DF93CF93CDB7DEB72A970FB6D4
:103C7000F894DEBF0FBECDBF98878F837A876987A0
:103C80008F8198859A8389831D82E981FA81828D4B
:103C90008823B1F0E981FA81868197819C838B83A7
:103CA00089819A8129853A85B9010E947F1FE9811E
:103CB000FA818B819C819783868381E08E8301C00A
:103CC0001E828E812A960FB6F894DEBF0FBECDBF3E
:103CD000CF91DF910895DF93CF9300D00F92CDB7AE
:103CE000DEB79B838A830FB6F8940F92EA81FB813B
:103CF000828D89830F900FBE89810F900F900F9056
:103D0000CF91DF910895DF93CF9300D000D00F9231
:103D1000CDB7DEB79D838C838C819D819A83898307
:103D20000FB6F8940F92E981FA81938DE981FA81B7
:103D3000828D292F281B822F8B830F900FBE8B81A2
:103D40000F900F900F900F900F90CF91DF910895EB
:103D5000DF93CF9300D000D00F92CDB7DEB79D8315
:103D60008C838C819D819A838983E981FA81828DFC
:103D70008B838B810F900F900F900F900F90CF91AE
:103D8000DF910895DF93CF9300D000D0CDB7DEB799
:103D90009C838B838B819C819A83898389819A817F
:103DA0000E94D50E0F900F900F900F90CF91DF9142
:103DB0000895DF93CF93CDB7DEB727970FB6F8946A
:103DC000DEBF0FBECDBF9C838B837E836D834F830D
:103DD0001A82EB81FC81828D8983EB81FC81848D49
:103DE000882309F47DC08F81882399F5EB81FC81BC
:103DF00062817381EB81FC81848D482F50E02D819D
:103E00003E81CB01B9010E94163CEB81FC812281ED
:103E10003381EB81FC81848D882F90E0820F931F8A
:103E2000EB81FC8193838283EB81FC81228133814E
:103E3000EB81FC81848195812817390708F450C0F3
:103E4000EB81FC8180819181EB81FC819383828372
:103E500047C0EB81FC8166817781EB81FC81848D99
:103E6000482F50E02D813E81CB01B9010E94163CC4
:103E7000EB81FC8126813781EB81FC81848D882F49
:103E800090E0909581959F4F820F931FEB81FC816D
:103E900097838683EB81FC8126813781EB81FC81CE
:103EA000808191812817390790F4EB81FC8124816E
:103EB0003581EB81FC81848D882F90E090958195F0
:103EC0009F4F820F931FEB81FC81978386838F81A5
:103ED000823031F48981882319F089818150898366
:103EE00089818F5FEB81FC81828F8A8127960FB653
:103EF000F894DEBF0FBECDBFCF91DF910895DF9361
:103F0000CF9300D000D0CDB7DEB79A8389837C836E
:103F10006B83E981FA81848D882389F1E981FA81B3
:103F200026813781E981FA81848D882F90E0820F84
:103F3000931FE981FA8197838683E981FA8126813B
:103F40003781E981FA81848195812817390740F00A
:103F5000E981FA8180819181E981FA819783868361
:103F6000E981FA8146815781E981FA81848D282F80
:103F700030E08B819C81BA01A9010E94163C0F9010
:103F80000F900F900F90CF91DF910895DF93CF9313
:103F900000D000D0CDB7DEB79C838B830FB6F894EA
:103FA0000F92EB81FC81868D8A8311C0EB81FC81AD
:103FB0008189882379F08B819C8141960E94962A81
:103FC000882311F00E94862D8A8181508A838A81FC
:103FD000181664F3EB81FC818FEF868F0F900FBE74
:103FE0000FB6F8940F92EB81FC81858D898311C007
:103FF000EB81FC818085882379F08B819C810896F8
:104000000E94962A882311F00E94862D8981815072
:1040100089838981181664F3EB81FC818FEF858F8A
:104020000F900FBE0F900F900F900F90CF91DF91D8
:104030000895DF93CF9300D00F92CDB7DEB79B8367
:104040008A830FB6F8940F92EA81FB81828D8823D0
:1040500019F481E0898301C019820F900FBE898114
:104060000F900F900F90CF91DF910895DF93CF9332
:1040700000D000D00F92CDB7DEB79D838C838C81AA
:104080009D819A838983E981FA81828D882319F43D
:1040900081E08B8301C01B828B810F900F900F906A
:1040A0000F900F90CF91DF910895DF93CF9300D0C1
:1040B0000F92CDB7DEB79B838A830FB6F8940F9229
:1040C000EA81FB81928DEA81FB81838D981719F437
:1040D00081E0898301C019820F900FBE89810F9002
:1040E0000F900F90CF91DF910895DF93CF9300D081
:1040F00000D00F92CDB7DEB79D838C838C819D81DC
:104100009A838983E981FA81928DE981FA81838D8D
:10411000981719F481E08B8301C01B828B810F906B
:104120000F900F900F900F90CF91DF910895DF9334
:10413000CF93CDB7DEB72A970FB6F894DEBF0FBE88
:10414000CDBF9D838C837F836E83598748878C8105
:104150009D819A838983F89489819A810E94552050
:104160008823A9F088859985009771F089819A81C3
:104170009C01285F3F4F88859985B9010E94631291
:1041800078948CEF8A872AC078941A8627C078940E
:10419000F894E981FA81928DE981FA81838D9817EB
:1041A000C8F489819A812E813F81B90140E00E9443
:1041B000D91E81E08B83E981FA818189882359F0B6
:1041C00089819A8141960E947614882321F08BEF91
:1041D0008B8301C01B8278948B818A878A852A967B
:1041E0000FB6F894DEBF0FBECDBFCF91DF9108951B
:1041F000DF93CF93CDB7DEB72A970FB6F894DEBF23
:104200000FBECDBF9D838C837F836E835987488784
:104210008C819D819A838983F894E981FA81828DCA
:104220008823A9F488859985009771F089819A81FE
:104230009C012F5E3F4F88859985B9010E946312CA
:1042400078948CEF8A8758C078941A8655C07894F1
:10425000F894E981FA81828D882309F449C0E981C3
:10426000FA8126813781E981FA81848D882F90E057
:10427000820F931FE981FA8197838683E981FA810E
:1042800026813781E981FA81848195812817390750
:1042900040F0E981FA8180819181E981FA819783F7
:1042A0008683E981FA81828D8150E981FA81828F4A
:1042B000E981FA8146815781E981FA81848D282F2D
:1042C00030E08E819F81BA01A9010E94163C81E0F5
:1042D0008B83E981FA818085882359F089819A81CD
:1042E00008960E947614882321F08BEF8B8301C0FF
:1042F0001B8278948B818A878A852A960FB6F894D8
:10430000DEBF0FBECDBFCF91DF910895DF93CF9376
:10431000CDB7DEB728970FB6F894DEBF0FBECDBF7E
:104320009C838B837E836D834F838B819C819A8357
:104330008983E981FA81928DE981FA81838D9817C9
:10434000D0F489819A812D813E81B90140E00E949B
:10435000D91E8F81882379F4E981FA8181898823A4
:1043600051F089819A8141960E947614882319F030
:1043700081E0888702C08F818887888528960FB65C
:10438000F894DEBF0FBECDBFCF91DF910895DF93CC
:10439000CF93CDB7DEB729970FB6F894DEBF0FBE27
:1043A000CDBF9D838C837F836E83598748878C81A3
:1043B0009D819A838983E981FA81828D882309F41A
:1043C00050C0E981FA8126813781E981FA81848DA3
:1043D000882F90E0820F931FE981FA81978386836B
:1043E000E981FA8126813781E981FA818481958189
:1043F0002817390740F0E981FA8180819181E981AC
:10440000FA8197838683E981FA81828D8150E981DF
:10441000FA81828FE981FA8146815781E981FA81A7
:10442000848D282F30E08E819F81BA01A9010E94DE
:10443000163CE885F9858081882381F4E981FA8139
:104440008085882359F089819A8108960E94761484
:10445000882321F0E885F98581E0808381E08B83E2
:1044600001C01B828B8129960FB6F894DEBF0FBE68
:10447000CDBFCF91DF910895DF93CF93CDB7DEB756
:1044800027970FB6F894DEBF0FBECDBF9C838B83FA
:104490007E836D834F838B819C819A8389830FB642
:1044A000F8940F92E981FA81858D8F3F19F4E981A3
:1044B000FA81158EE981FA81868D8F3F19F4E981A1
:1044C000FA81168E0F900FBEE981FA81828D8823C2
:1044D00049F489819A8141962D813E81B9014F81AC
:1044E0000E94342A89819A810E94C61F27960FB69E
:1044F000F894DEBF0FBECDBFCF91DF9108958F92AC
:104500009F92AF92BF92CF92DF92EF92FF920F9362
:104510001F93DF93CF93CDB7DEB760970FB6F894B4
:10452000DEBF0FBECDBF9F838E83798768875B8791
:104530004A873D872C870E87F88AEF868A859B8578
:104540000E947B0E9A83898389819A810097B1F0BA
:1045500086E290E00E947B0E9D838C838C819D81FE
:10456000009739F0EC81FD8189819A81908F878B4A
:1045700007C089819A810E94D50E02C01D821C82CB
:104580008C819D810097E9F08A859B859C0140E0A4
:1045900050E08E819F8168857985EC85FD85AF85AA
:1045A000B889AC80BD808F01EE846D018824992488
:1045B0000E94F7228C819D810E94BC2381E08B8325
:1045C00002C08FEF8B838B8160960FB6F894DEBFAD
:1045D0000FBECDBFCF91DF911F910F91FF90EF9054
:1045E000DF90CF90BF90AF909F908F9008958F9263
:1045F0009F92AF92BF92CF92DF92EF920F931F9351
:10460000DF93CF93CDB7DEB764970FB6F894DEBFD4
:104610000FBECDBF9D838C837F836E8328873987B0
:104620004A875B871D870C87EE86D88ACF86BA8A31
:10463000A98A9C8A8B8AE989FA892789308D88859D
:1046400099850197820F931F9B838A838E819F8117
:10465000009751F1198221C08981482F50E089814A
:10466000282F30E08E819F81FC01E20FF31F208113
:1046700089899A89840F951FFC0179962083898105
:10468000282F30E08E819F81FC01E20FF31F808193
:10469000882331F089818F5F898389818830E0F2B6
:1046A000E989FA8910A203C0E989FA89118E8E85F9
:1046B000843010F083E08E87E989FA898E85868BB5
:1046C00089899A8902960E941D1889899A890C966F
:1046D0000E941D18E989FA8989899A8991878087BA
:1046E0008E85282F30E084E090E0821B930BE989CF
:1046F000FA8995878487E989FA8989899A89938BC8
:10470000828B89899A89819660E070E044E050E06C
:104710000E941F3C89899A89859660E070E041E09B
:1047200050E00E941F3C8A819B812C813D814C85F9
:104730005D85B9010E94FB0EE989FA899183808326
:104740008F859889009731F0EF85F88989899A8952
:104750009183808364960FB6F894DEBF0FBECDBF01
:10476000CF91DF911F910F91EF90DF90CF90BF908D
:10477000AF909F908F900895DF93CF9300D000D09B
:10478000CDB7DEB79C838B830FB6F8940F928091E0
:104790004B078F5F80934B078091480790914907A3
:1047A000009769F48B819C81909349078093480717
:1047B00080914B078130B9F40E94A02D14C08091E4
:1047C0004F07882381F4E0914807F09149079689C3
:1047D000EB81FC818689891730F08B819C819093D5
:1047E000490780934807809154078F5F809354074F
:1047F000EB81FC81968980914E07891728F4EB8123
:10480000FC81868980934E07EB81FC818689282F65
:1048100030E0C901880F991F880F991F880F991FD1
:10482000820F931FFC01E65AF84F818192819A838F
:104830008983EB81FC8189819A8195838483E981D5
:10484000FA8184819581EB81FC8197838683E9815C
:10485000FA810480F581E02D8B819C8102969383FF
:1048600082838B819C810296E981FA81958384837E
:10487000EB81FC818689282F30E0C901880F991FC0
:10488000880F991F880F991F820F931F865A984F80
:10489000EB81FC8193878287EB81FC818689282FBD
:1048A00030E0C901880F991F880F991F880F991F41
:1048B000820F931FFC01E65AF84F80818F5F80833F
:1048C0000F900FBE80914F07882361F0E091480759
:1048D000F09149079689EB81FC818689981710F43D
:1048E0000E94BA100F900F900F900F90CF91DF9110
:1048F0000895DF93CF9300D000D000D0CDB7DEB7BE
:104900009C838B830FB6F8940F928B819C810097C8
:1049100039F480914807909149079E838D8304C0A4
:104920008B819C819E838D838D819E819A838983D7
:1049300089819A8102960E94DD18E981FA81848931
:104940009589009729F089819A810C960E94DD183B
:10495000809154078F5F80935407209148073091CE
:10496000490789819A818217930781F489819A8105
:104970009C012E5F3F4F8DE997E0B9010E942D18F1
:1049800080914A078F5F80934A0707C080914B0749
:10499000815080934B070E94222E0F900FBE2091D2
:1049A00048073091490789819A818217930721F03E
:1049B00089819A810E940C2E80914F07882359F09B
:1049C000209148073091490789819A81821793077E
:1049D00011F40E94BA1026960FB6F894DEBF0FBEEF
:1049E000CDBFCF91DF910895DF93CF93CDB7DEB7E1
:1049F0002A970FB6F894DEBF0FBECDBF98878F837E
:104A00007A8769871B820E94D02580914C079091FC
:104A10004D079A838983EF81F885208131818985CB
:104A20009A85820F931F9E838D83EF81F885208165
:104A3000318189819A818217930798F4EF81F885F3
:104A4000208131818D819E8182179307E0F42D8131
:104A50003E8189819A8182179307A8F481E08B8334
:104A600012C0EF81F885208131818D819E8182176E
:104A7000930738F02D813E8189819A8182179307AF
:104A800010F481E08B83EF81F8858D819E81918385
:104A900080838B81882349F08D819E8129813A8191
:104AA000821B930B60E00E9409360E94DC258C83F8
:104AB0008C81882311F40E94BA108B812A960FB63C
:104AC000F894DEBF0FBECDBFCF91DF910895DF9385
:104AD000CF9300D00F92CDB7DEB79B838A83198224
:104AE0008A819B81009751F00E94D0258A819B8109
:104AF00060E00E9409360E94DC2589838981882331
:104B000011F40E94BA100F900F900F90CF91DF9187
:104B10000895EF92FF920F93DF93CF9300D0CDB71C
:104B2000DEB780E99DE225E730E0E7E5F7E0B9018F
:104B300045E550E020E030E000E07F010E947F2268
:104B400089838981813019F40E946F368983898134
:104B5000813081F4F8948FEF9FEF90935607809304
:104B6000550781E080934F0710924D0710924C0734
:104B70000E947E1080918A000F900F90CF91DF915C
:104B80000F91FF90EF900895DF93CF93CDB7DEB7ED
:104B9000F89410924F070E94B310CF91DF910895BF
:104BA000DF93CF93CDB7DEB7809159078F5F8093A6
:104BB0005907CF91DF910895DF93CF93CDB7DEB73B
:104BC0002B970FB6F894DEBF0FBECDBF1B861A869B
:104BD00019860FB6F8940F928091590781508093EF
:104BE000590780915907882309F02AC180914B0702
:104BF000882309F425C1F3C0E0919907F0919A0741
:104C0000868197819B878A87EA85FB858489958938
:104C100098878F83EA85FB85A685B785EA85FB851E
:104C20008089918915969C938E931497EA85FB85CC
:104C3000A089B189EA85FB858685978513969C9323
:104C40008E931297EF81F885218132818A859B8529
:104C50000C962817390741F4EA85FB8580899189EC
:104C6000EF81F88592838183EA85FB85158A148A12
:104C7000EF81F88580818150EF81F8858083EA8516
:104C8000FB85828593859E838D83EA85FB85A48140
:104C9000B581EA85FB858681978115969C938E93D5
:104CA0001497EA85FB85A681B781EA85FB85848117
:104CB000958113969C938E931297ED81FE812181AD
:104CC00032818A859B8502962817390741F4EA8547
:104CD000FB8586819781ED81FE8192838183EA85C0
:104CE000FB8513861286ED81FE8180818150ED81E6
:104CF000FE818083EA85FB85968980914E0789171E
:104D000028F4EA85FB85868980934E07EA85FB8532
:104D10008689282F30E0C901880F991F880F991FB5
:104D2000880F991F820F931FFC01E65AF84F81816B
:104D300092819C838B83EA85FB858B819C81958303
:104D40008483EB81FC8184819581EA85FB8597834F
:104D50008683EB81FC810480F581E02D8A859B852B
:104D60000296938382838A859B850296EB81FC81E0
:104D700095838483EA85FB858689282F30E0C901E5
:104D8000880F991F880F991F880F991F820F931FF3
:104D9000865A984FEA85FB8593878287EA85FB854B
:104DA0008689282F30E0C901880F991F880F991F25
:104DB000880F991F820F931FFC01E65AF84F8081DC
:104DC0008F5F8083EA85FB859689E0914807F091A3
:104DD00049078689981718F081E0809352078091DF
:104DE0009407882309F008CF8A859B85009711F0E6
:104DF0000E94222E80915007909151079A838983B7
:104E000089819A810097A1F00E94A927882319F02F
:104E100081E08093520789819A8101979A838983DF
:104E200089819A81009781F710925107109250075B
:104E300080915207882321F081E089870E94BA106F
:104E40000F900FBE89852B960FB6F894DEBF0FBE6C
:104E5000CDBFCF91DF910895DF93CF9300D0CDB731
:104E6000DEB70FB6F8940F9280914C0790914D07E2
:104E70009A8389830F900FBE89819A810F900F903A
:104E8000CF91DF910895DF93CF9300D00F92CDB7EC
:104E9000DEB7198280914C0790914D079B838A83DE
:104EA0008A819B810F900F900F90CF91DF91089591
:104EB000DF93CF93CDB7DEB780914B07CF91DF91D2
:104EC0000895DF93CF9300D000D000D0CDB7DEB7E8
:104ED0009C838B838B819C81009739F48091480758
:104EE000909149079E838D8304C08B819C819E8312
:104EF0008D838D819E819A83898389819A81499648
:104F000026960FB6F894DEBF0FBECDBFCF91DF91CE
:104F10000895DF93CF9300D00F92CDB7DEB79B8378
:104F20008A830E94D02520915007309151078A81B1
:104F30009B81820F931F90935107809350070E948B
:104F4000DC25898389810F900F900F90CF91DF919D
:104F50000895DF93CF93CDB7DEB72F970FB6F894B0
:104F6000DEBF0FBECDBF1B8680915907882309F095
:104F700074C180914C0790914D0701969A8789875B
:104F800089859A8590934D0780934C0789859A85EA
:104F90000097D9F4809190079091910798878F831B
:104FA0008091920790919307909391078093900737
:104FB0008F819885909393078093920780915307F0
:104FC0008F5F809353070E94222E209155073091C6
:104FD000560789859A858217930708F41FC1E091C7
:104FE0009007F09191078081882339F48FEF9FEF2C
:104FF000909356078093550711C1E0919007F09167
:1050000091070580F681E02D868197819F878E87A5
:10501000EE85FF85828193819D878C8729853A85DE
:105020008C859D852817390738F48C859D8590934C
:10503000560780935507F2C0EE85FF8582859385DC
:105040009E838D83EE85FF85A481B581EE85FF85E6
:105050008681978115969C938E931497EE85FF8594
:10506000A681B781EE85FF858481958113969C93F7
:105070008E931297ED81FE81218132818E859F85ED
:1050800002962817390741F4EE85FF8586819781BE
:10509000ED81FE8192838183EE85FF8513861286E2
:1050A000ED81FE8180818150ED81FE818083EE85DE
:1050B000FF85848995890097D9F1EE85FF858489DC
:1050C00095899C838B83EE85FF85A685B785EE85C4
:1050D000FF858089918915969C938E931497EE8510
:1050E000FF85A089B189EE85FF8586859785139612
:1050F0009C938E931297EB81FC81218132818E8566
:105100009F850C962817390741F4EE85FF85808925
:105110009189EB81FC8192838183EE85FF85158ADD
:10512000148AEB81FC8180818150EB81FC8180833A
:10513000EE85FF85968980914E07891728F4EE85C4
:10514000FF85868980934E07EE85FF858689282F07
:1051500030E0C901880F991F880F991F880F991F88
:10516000820F931FFC01E65AF84F818192819A8346
:105170008983EE85FF8589819A8195838483E9817E
:10518000FA8184819581EE85FF8597838683E98105
:10519000FA810480F581E02D8E859F8502969383A8
:1051A00082838E859F850296E981FA819583848327
:1051B000EE85FF858689282F30E0C901880F991F69
:1051C000880F991F880F991F820F931F865A984F37
:1051D000EE85FF8593878287EE85FF858689282F58
:1051E00030E0C901880F991F880F991F880F991FF8
:1051F000820F931FFC01E65AF84F80818F5F8083F6
:10520000EE85FF859689E0914807F09149078689E8
:10521000981708F4E4CE81E08B87E1CEE09148074F
:10522000F09149078689282F30E0C901880F991F1E
:10523000880F991F880F991F820F931FFC01E65A50
:10524000F84F8081823010F081E08B878091520787
:10525000882361F081E08B8709C08091500790918D
:105260005107019690935107809350078B852F9695
:105270000FB6F894DEBF0FBECDBFCF91DF9108957A
:10528000DF93CF9300D00F92CDB7DEB7809159074F
:10529000882321F081E08093520759C01092520771
:1052A00080914E078B8303C08B8181508B838B81D0
:1052B000282F30E0C901880F991F880F991F880F88
:1052C000991F820F931FFC01E65AF84F80818823B3
:1052D00059F38B81282F30E0C901880F991F880F5F
:1052E000991F880F991F820F931F865A984F9A8390
:1052F0008983E981FA810180F281E02D82819381A5
:10530000E981FA8192838183E981FA812181328165
:1053100089819A8103962817390759F4E981FA811E
:105320000180F281E02D82819381E981FA8192836B
:105330008183E981FA810180F281E02D8681978164
:1053400090934907809348078B8180934E070F9075
:105350000F900F90CF91DF910895DF93CF9300D0FE
:1053600000D0CDB7DEB79A8389837C836B8380912D
:105370004807909149079C01245F3F4F89819A819A
:10538000B9010E9471188B819C8161E00E940936ED
:105390000F900F900F900F90CF91DF910895DF93B2
:1053A000CF93CDB7DEB728970FB6F894DEBF0FBE08
:1053B000CDBF9C838B837E836D8358874F83E09121
:1053C0004807F09149078D819E8190689587848771
:1053D000EB81FC81818192819A838983E0914807E6
:1053E000F091490789819A8197878687A09148071C
:1053F000B0914907E981FA818481958151969C9306
:105400008E935097E981FA810480F581E02D809197
:105410004807909149070C969383828380914807AF
:10542000909149070C96E981FA8195838483E091F4
:105430004807F09149078B819C81958B848BEB8188
:10544000FC8180818F5FEB81FC8180838F819885D7
:1054500061E00E94093628960FB6F894DEBF0FBEB1
:10546000CDBFCF91DF910895DF93CF93CDB7DEB756
:1054700027970FB6F894DEBF0FBECDBF9C838B83FA
:105480007E836D834F83EB81FC81818192819A833E
:105490008983E0914807F091490789819A8197872C
:1054A0008687A0914807B0914907E981FA818481F4
:1054B000958151969C938E935097E981FA8104804F
:1054C000F581E02D80914807909149070C969383D0
:1054D000828380914807909149070C96E981FA816F
:1054E00095838483E0914807F09149078B819C81E3
:1054F000958B848BEB81FC8180818F5FEB81FC81BC
:1055000080838F81882321F08FEF9FEF9E838D838F
:105510008D819E816F810E94093627960FB6F8947F
:10552000DEBF0FBECDBFCF91DF910895DF93CF9344
:10553000CDB7DEB72D970FB6F894DEBF0FBECDBF47
:105540009D878C87EC85FD850580F681E02D868121
:1055500097819B878A87EA85FB85848995899887C7
:105560008F83EA85FB85A685B785EA85FB858089DB
:10557000918915969C938E931497EA85FB85A08953
:10558000B189EA85FB858685978513969C938E93D2
:105590001297EF81F885218132818A859B850C964F
:1055A0002817390741F4EA85FB8580899189EF81C5
:1055B000F88592838183EA85FB85158A148AEF81B9
:1055C000F88580818150EF81F8858083809159072B
:1055D000882309F0A4C0EA85FB85828593859E8394
:1055E0008D83EA85FB85A481B581EA85FB8586816B
:1055F000978115969C938E931497EA85FB85A681D7
:10560000B781EA85FB858481958113969C938E935F
:105610001297ED81FE81218132818A859B850296D8
:105620002817390741F4EA85FB8586819781ED814A
:10563000FE8192838183EA85FB8513861286ED8144
:10564000FE8180818150ED81FE818083EA85FB852A
:10565000968980914E07891728F4EA85FB8586890B
:1056600080934E07EA85FB858689282F30E0C901A3
:10567000880F991F880F991F880F991F820F931FFA
:10568000FC01E65AF84F818192819C838B83EA85E5
:10569000FB858B819C8195838483EB81FC81848154
:1056A0009581EA85FB8597838683EB81FC81048065
:1056B000F581E02D8A859B850296938382838A8576
:1056C0009B850296EB81FC8195838483EA85FB852B
:1056D0008689282F30E0C901880F991F880F991FEC
:1056E000880F991F820F931F865A984FEA85FB8572
:1056F00093878287EA85FB858689282F30E0C90158
:10570000880F991F880F991F880F991F820F931F69
:10571000FC01E65AF84F80818F5F808330C0809112
:105720009507909196079A838983EA85FB858981FD
:105730009A8197878687E981FA8184819581EA85B4
:10574000FB85918B808BE981FA810480F581E02DC6
:105750008A859B850C96938382838A859B850C968C
:10576000E981FA8195838483EA85FB8584E997E062
:10577000958B848B809194078F5F80939407EA8543
:10578000FB859689E0914807F0914907868989173A
:1057900030F481E0898781E08093520701C0198647
:1057A00089852D960FB6F894DEBF0FBECDBFCF9181
:1057B000DF910895DF93CF93CDB7DEB72C970FB667
:1057C000F894DEBF0FBECDBF9A8789877C876B8731
:1057D0008B859C859068E985FA8591838083E9852E
:1057E000FA858681978198878F83E985FA858085F8
:1057F00091859E838D83E985FA85A281B381E985B0
:10580000FA858481958115969C938E931497E985EA
:10581000FA85A481B581E985FA8582819381139601
:105820009C938E931297ED81FE812181328189852F
:105830009A852817390741F4E985FA85848195818D
:10584000ED81FE8192838183E985FA851186108638
:10585000ED81FE8180818150ED81FE818083EF8129
:10586000F885828593859C838B83EF81F885A4815D
:10587000B581EF81F8858681978115969C938E93EB
:105880001497EF81F885A681B781EF81F88584812F
:10589000958113969C938E931297EB81FC812181C5
:1058A00032818F81988502962817390741F4EF815C
:1058B000F88586819781EB81FC8192838183EF81DA
:1058C000F88513861286EB81FC8180818150EB8103
:1058D000FC818083EF81F885968980914E07891736
:1058E00028F4EF81F885868980934E07EF81F8854B
:1058F0008689282F30E0C901880F991F880F991FCA
:10590000880F991F820F931FFC01E65AF84F81817F
:1059100092819A838983EF81F88589819A81958321
:105920008483E981FA8184819581EF81F885978369
:105930008683E981FA810480F581E02D8F81988545
:105940000296938382838F8198850296E981FA81FA
:1059500095838483EF81F8858689282F30E0C901FB
:10596000880F991F880F991F880F991F820F931F07
:10597000865A984FEF81F88593878287EF81F88563
:105980008689282F30E0C901880F991F880F991F39
:10599000880F991F820F931FFC01E65AF84F8081F0
:1059A0008F5F8083EF81F8859689E0914807F091B9
:1059B00049078689891718F481E0809352072C964D
:1059C0000FB6F894DEBF0FBECDBFCF91DF91089523
:1059D000DF93CF9300D0CDB7DEB79A8389830FB61C
:1059E000F8940F9280915307E981FA818083809126
:1059F0004C0790914D07E981FA81928381830F9042
:105A00000FBE0F900F90CF91DF910895DF93CF934A
:105A100000D0CDB7DEB79A83898380915307E9819F
:105A2000FA81808380914C0790914D07E981FA813A
:105A3000928381830F900F90CF91DF910895DF9330
:105A4000CF93CDB7DEB729970FB6F894DEBF0FBE60
:105A5000CDBF9F838E83798768870FB6F8940F92A6
:105A600080914C0790914D079C838B83EE81FF8141
:105A7000218132818B819C81821B930B9A83898344
:105A8000EE81FF81908180915307981781F0EE811C
:105A9000FF81218132818B819C818217930738F0AD
:105AA00081E08D83E885F9851182108223C0E88525
:105AB000F9852081318189819A8182179307A0F429
:105AC000E885F9852081318189819A81A901481B66
:105AD000590BCA01E885F985918380838E819F8166
